{"abi":[{"type":"function","name":"messenger","inputs":[],"outputs":[{"name":"","type":"address","internalType":"contract ITeleporterMessenger"}],"stateMutability":"view"},{"type":"function","name":"receiveTeleporterMessage","inputs":[{"name":"","type":"bytes32","internalType":"bytes32"},{"name":"","type":"address","internalType":"address"},{"name":"message","type":"bytes","internalType":"bytes"}],"outputs":[],"stateMutability":"nonpayable"},{"type":"function","name":"receivedMessageCount","inputs":[],"outputs":[{"name":"","type":"uint256","internalType":"uint256"}],"stateMutability":"view"}],"bytecode":{"object":"0x60a060405273253b2784c75e510dd0ff1da844684a1ac0aa5fcf73ffffffffffffffffffffffffffffffffffffffff1660809073ffffffffffffffffffffffffffffffffffffffff168152503480156055575f5ffd5b5060805161059c6100735f395f8181609d015260c6015261059c5ff3fe608060405234801561000f575f5ffd5b506004361061003f575f3560e01c80633cb747bf1461004357806344500d9714610061578063c868efaa1461007f575b5f5ffd5b61004b61009b565b604051610058919061025e565b60405180910390f35b6100696100bf565b604051610076919061028f565b60405180910390f35b6100996004803603810190610094919061037f565b6100c4565b005b7f000000000000000000000000000000000000000000000000000000000000000081565b5f5481565b7f000000000000000000000000000000000000000000000000000000000000000073ffffffffffffffffffffffffffffffffffffffff163373ffffffffffffffffffffffffffffffffffffffff1614610152576040517f08c379a000000000000000000000000000000000000000000000000000000000815260040161014990610470565b60405180910390fd5b5f828281019061016291906104c7565b905060015f8263ffffffff1663ffffffff1681526020019081526020015f205f9054906101000a900460ff166101dd576001805f8363ffffffff1663ffffffff1681526020019081526020015f205f6101000a81548160ff0219169083151502179055505f5f8154809291906101d79061051f565b91905055505b5050505050565b5f73ffffffffffffffffffffffffffffffffffffffff82169050919050565b5f819050919050565b5f61022661022161021c846101e4565b610203565b6101e4565b9050919050565b5f6102378261020c565b9050919050565b5f6102488261022d565b9050919050565b6102588161023e565b82525050565b5f6020820190506102715f83018461024f565b92915050565b5f819050919050565b61028981610277565b82525050565b5f6020820190506102a25f830184610280565b92915050565b5f5ffd5b5f5ffd5b5f819050919050565b6102c2816102b0565b81146102cc575f5ffd5b50565b5f813590506102dd816102b9565b92915050565b5f6102ed826101e4565b9050919050565b6102fd816102e3565b8114610307575f5ffd5b50565b5f81359050610318816102f4565b92915050565b5f5ffd5b5f5ffd5b5f5ffd5b5f5f83601f84011261033f5761033e61031e565b5b8235905067ffffffffffffffff81111561035c5761035b610322565b5b60208301915083600182028301111561037857610377610326565b5b9250929050565b5f5f5f5f60608587031215610397576103966102a8565b5b5f6103a4878288016102cf565b94505060206103b58782880161030a565b935050604085013567ffffffffffffffff8111156103d6576103d56102ac565b5b6103e28782880161032a565b925092505092959194509250565b5f82825260208201905092915050565b7f49434d52656365697665723a20756e617574686f72697a65642054656c65706f5f8201527f727465724d657373656e67657200000000000000000000000000000000000000602082015250565b5f61045a602d836103f0565b915061046582610400565b604082019050919050565b5f6020820190508181035f8301526104878161044e565b9050919050565b5f63ffffffff82169050919050565b6104a68161048e565b81146104b0575f5ffd5b50565b5f813590506104c18161049d565b92915050565b5f602082840312156104dc576104db6102a8565b5b5f6104e9848285016104b3565b91505092915050565b7f4e487b71000000000000000000000000000000000000000000000000000000005f52601160045260245ffd5b5f61052982610277565b91507fffffffffffffffffffffffffffffffffffffffffffffffffffffffffffffffff820361055b5761055a6104f2565b5b60018201905091905056fea2646970667358221220cbb39459030f735c82b74bc2e2d8417280dc3d8dc3cea3f770f0fd7e74b016fa64736f6c634300081c0033","linkReferences":{}},"methodIdentifiers":{"messenger()":"3cb747bf","receiveTeleporterMessage(bytes32,address,bytes)":"c868efaa","receivedMessageCount()":"44500d97"},"id":0}