{"abi":[{"type":"function","name":"sendMessage","inputs":[{"name":"destinationAddress","type":"address","internalType":"address"},{"name":"destinationBlockchainID","type":"bytes32","internalType":"bytes32"}],"outputs":[],"stateMutability":"nonpayable"}],"bytecode":{"object":"0x60a060405273253b2784c75e510dd0ff1da844684a1ac0aa5fcf73ffffffffffffffffffffffffffffffffffffffff1660809073ffffffffffffffffffffffffffffffffffffffff1681525060015f5f6101000a81548163ffffffff021916908363ffffffff1602179055503480156075575f5ffd5b5060805161062761008d5f395f608c01526106275ff3fe608060405234801561000f575f5ffd5b5060043610610029575f3560e01c80636df2ddd81461002d575b5f5ffd5b61004760048036038101906100429190610290565b610049565b005b5f5f5f81819054906101000a900463ffffffff168092919061006a9061030a565b91906101000a81548163ffffffff021916908363ffffffff16021790555090507f000000000000000000000000000000000000000000000000000000000000000073ffffffffffffffffffffffffffffffffffffffff1663624488506040518060c001604052808581526020018673ffffffffffffffffffffffffffffffffffffffff16815260200160405180604001604052805f73ffffffffffffffffffffffffffffffffffffffff1681526020015f8152508152602001620186a081526020015f67ffffffffffffffff81111561014657610145610335565b5b6040519080825280602002602001820160405280156101745781602001602082028036833780820191505090505b5081526020018460405160200161018b9190610371565b6040516020818303038152906040528152506040518263ffffffff1660e01b81526004016101b99190610592565b6020604051808303815f875af11580156101d5573d5f5f3e3d5ffd5b505050506040513d601f19601f820116820180604052508101906101f991906105c6565b50505050565b5f5ffd5b5f73ffffffffffffffffffffffffffffffffffffffff82169050919050565b5f61022c82610203565b9050919050565b61023c81610222565b8114610246575f5ffd5b50565b5f8135905061025781610233565b92915050565b5f819050919050565b61026f8161025d565b8114610279575f5ffd5b50565b5f8135905061028a81610266565b92915050565b5f5f604083850312156102a6576102a56101ff565b5b5f6102b385828601610249565b92505060206102c48582860161027c565b9150509250929050565b7f4e487b71000000000000000000000000000000000000000000000000000000005f52601160045260245ffd5b5f63ffffffff82169050919050565b5f610314826102fb565b915063ffffffff820361032a576103296102ce565b5b600182019050919050565b7f4e487b71000000000000000000000000000000000000000000000000000000005f52604160045260245ffd5b61036b816102fb565b82525050565b5f6020820190506103845f830184610362565b92915050565b6103938161025d565b82525050565b6103a281610222565b82525050565b5f819050919050565b6103ba816103a8565b82525050565b604082015f8201516103d45f850182610399565b5060208201516103e760208501826103b1565b50505050565b5f81519050919050565b5f82825260208201905092915050565b5f819050602082019050919050565b5f6104218383610399565b60208301905092915050565b5f602082019050919050565b5f610443826103ed565b61044d81856103f7565b935061045883610407565b805f5b8381101561048857815161046f8882610416565b975061047a8361042d565b92505060018101905061045b565b5085935050505092915050565b5f81519050919050565b5f82825260208201905092915050565b8281835e5f83830152505050565b5f601f19601f8301169050919050565b5f6104d782610495565b6104e1818561049f565b93506104f18185602086016104af565b6104fa816104bd565b840191505092915050565b5f60e083015f83015161051a5f86018261038a565b50602083015161052d6020860182610399565b50604083015161054060408601826103c0565b50606083015161055360808601826103b1565b50608083015184820360a086015261056b8282610439565b91505060a083015184820360c086015261058582826104cd565b9150508091505092915050565b5f6020820190508181035f8301526105aa8184610505565b905092915050565b5f815190506105c081610266565b92915050565b5f602082840312156105db576105da6101ff565b5b5f6105e8848285016105b2565b9150509291505056fea2646970667358221220536f3af63577c7f48ba171cb94afbef28b193a62119e6af5d5efdc2e23c735c964736f6c634300081c0033","linkReferences":{}},"methodIdentifiers":{"sendMessage(address,bytes32)":"6df2ddd8"},"id":0}